{
  "contractName": "ParkingSystem",
  "abi": [
    {
      "inputs": [],
      "stateMutability": "nonpayable",
      "type": "constructor"
    },
    {
      "anonymous": false,
      "inputs": [
        {
          "indexed": true,
          "internalType": "address",
          "name": "user",
          "type": "address"
        },
        {
          "indexed": false,
          "internalType": "uint256",
          "name": "lotId",
          "type": "uint256"
        },
        {
          "indexed": false,
          "internalType": "uint256",
          "name": "spotId",
          "type": "uint256"
        },
        {
          "indexed": false,
          "internalType": "uint256",
          "name": "startTime",
          "type": "uint256"
        },
        {
          "indexed": false,
          "internalType": "uint256",
          "name": "duration",
          "type": "uint256"
        },
        {
          "indexed": false,
          "internalType": "uint256",
          "name": "amountPaid",
          "type": "uint256"
        },
        {
          "indexed": false,
          "internalType": "uint256",
          "name": "reservationTime",
          "type": "uint256"
        },
        {
          "indexed": false,
          "internalType": "uint256",
          "name": "reminderBefore",
          "type": "uint256"
        }
      ],
      "name": "SpotBooked",
      "type": "event"
    },
    {
      "anonymous": false,
      "inputs": [
        {
          "indexed": false,
          "internalType": "uint256",
          "name": "lotId",
          "type": "uint256"
        },
        {
          "indexed": false,
          "internalType": "uint256",
          "name": "spotId",
          "type": "uint256"
        }
      ],
      "name": "SpotReleased",
      "type": "event"
    },
    {
      "inputs": [],
      "name": "admin",
      "outputs": [
        {
          "internalType": "address",
          "name": "",
          "type": "address"
        }
      ],
      "stateMutability": "view",
      "type": "function",
      "constant": true
    },
    {
      "inputs": [
        {
          "internalType": "uint256",
          "name": "",
          "type": "uint256"
        },
        {
          "internalType": "uint256",
          "name": "",
          "type": "uint256"
        }
      ],
      "name": "bookings",
      "outputs": [
        {
          "internalType": "address",
          "name": "user",
          "type": "address"
        },
        {
          "internalType": "uint256",
          "name": "lotId",
          "type": "uint256"
        },
        {
          "internalType": "uint256",
          "name": "spotId",
          "type": "uint256"
        },
        {
          "internalType": "uint256",
          "name": "startTime",
          "type": "uint256"
        },
        {
          "internalType": "uint256",
          "name": "duration",
          "type": "uint256"
        },
        {
          "internalType": "uint256",
          "name": "amountPaid",
          "type": "uint256"
        },
        {
          "internalType": "uint256",
          "name": "reservationTime",
          "type": "uint256"
        },
        {
          "internalType": "uint256",
          "name": "reminderBefore",
          "type": "uint256"
        }
      ],
      "stateMutability": "view",
      "type": "function",
      "constant": true
    },
    {
      "inputs": [],
      "name": "lotCount",
      "outputs": [
        {
          "internalType": "uint256",
          "name": "",
          "type": "uint256"
        }
      ],
      "stateMutability": "view",
      "type": "function",
      "constant": true
    },
    {
      "inputs": [
        {
          "internalType": "uint256",
          "name": "",
          "type": "uint256"
        }
      ],
      "name": "parkingLots",
      "outputs": [
        {
          "internalType": "uint256",
          "name": "id",
          "type": "uint256"
        },
        {
          "internalType": "uint256",
          "name": "totalSpots",
          "type": "uint256"
        }
      ],
      "stateMutability": "view",
      "type": "function",
      "constant": true
    },
    {
      "inputs": [],
      "name": "ratePerHour",
      "outputs": [
        {
          "internalType": "uint256",
          "name": "",
          "type": "uint256"
        }
      ],
      "stateMutability": "view",
      "type": "function",
      "constant": true
    },
    {
      "inputs": [
        {
          "internalType": "address",
          "name": "",
          "type": "address"
        },
        {
          "internalType": "uint256",
          "name": "",
          "type": "uint256"
        }
      ],
      "name": "userHistory",
      "outputs": [
        {
          "internalType": "address",
          "name": "user",
          "type": "address"
        },
        {
          "internalType": "uint256",
          "name": "lotId",
          "type": "uint256"
        },
        {
          "internalType": "uint256",
          "name": "spotId",
          "type": "uint256"
        },
        {
          "internalType": "uint256",
          "name": "startTime",
          "type": "uint256"
        },
        {
          "internalType": "uint256",
          "name": "duration",
          "type": "uint256"
        },
        {
          "internalType": "uint256",
          "name": "amountPaid",
          "type": "uint256"
        },
        {
          "internalType": "uint256",
          "name": "reservationTime",
          "type": "uint256"
        },
        {
          "internalType": "uint256",
          "name": "reminderBefore",
          "type": "uint256"
        }
      ],
      "stateMutability": "view",
      "type": "function",
      "constant": true
    },
    {
      "inputs": [
        {
          "internalType": "uint256",
          "name": "lotId",
          "type": "uint256"
        }
      ],
      "name": "getAvailableSpotsByLot",
      "outputs": [
        {
          "internalType": "uint256[]",
          "name": "",
          "type": "uint256[]"
        }
      ],
      "stateMutability": "view",
      "type": "function",
      "constant": true
    },
    {
      "inputs": [
        {
          "internalType": "uint256",
          "name": "lotId",
          "type": "uint256"
        }
      ],
      "name": "getLotDetails",
      "outputs": [
        {
          "internalType": "uint256",
          "name": "lotID",
          "type": "uint256"
        },
        {
          "internalType": "uint256",
          "name": "total",
          "type": "uint256"
        },
        {
          "internalType": "uint256",
          "name": "available",
          "type": "uint256"
        }
      ],
      "stateMutability": "view",
      "type": "function",
      "constant": true
    },
    {
      "inputs": [
        {
          "internalType": "uint256",
          "name": "lotId",
          "type": "uint256"
        },
        {
          "internalType": "uint256",
          "name": "spotId",
          "type": "uint256"
        },
        {
          "internalType": "uint256",
          "name": "durationHours",
          "type": "uint256"
        },
        {
          "internalType": "address payable",
          "name": "recipient",
          "type": "address"
        },
        {
          "internalType": "uint256",
          "name": "reservationTime",
          "type": "uint256"
        },
        {
          "internalType": "uint256",
          "name": "reminderBefore",
          "type": "uint256"
        }
      ],
      "name": "bookSpot",
      "outputs": [],
      "stateMutability": "payable",
      "type": "function",
      "payable": true
    },
    {
      "inputs": [
        {
          "internalType": "uint256",
          "name": "lotId",
          "type": "uint256"
        },
        {
          "internalType": "uint256",
          "name": "spotId",
          "type": "uint256"
        }
      ],
      "name": "releaseSpot",
      "outputs": [],
      "stateMutability": "nonpayable",
      "type": "function"
    },
    {
      "inputs": [
        {
          "internalType": "address",
          "name": "user",
          "type": "address"
        }
      ],
      "name": "getUserHistory",
      "outputs": [
        {
          "components": [
            {
              "internalType": "address",
              "name": "user",
              "type": "address"
            },
            {
              "internalType": "uint256",
              "name": "lotId",
              "type": "uint256"
            },
            {
              "internalType": "uint256",
              "name": "spotId",
              "type": "uint256"
            },
            {
              "internalType": "uint256",
              "name": "startTime",
              "type": "uint256"
            },
            {
              "internalType": "uint256",
              "name": "duration",
              "type": "uint256"
            },
            {
              "internalType": "uint256",
              "name": "amountPaid",
              "type": "uint256"
            },
            {
              "internalType": "uint256",
              "name": "reservationTime",
              "type": "uint256"
            },
            {
              "internalType": "uint256",
              "name": "reminderBefore",
              "type": "uint256"
            }
          ],
          "internalType": "struct ParkingSystem.Booking[]",
          "name": "",
          "type": "tuple[]"
        }
      ],
      "stateMutability": "view",
      "type": "function",
      "constant": true
    },
    {
      "inputs": [
        {
          "internalType": "uint256",
          "name": "lotId",
          "type": "uint256"
        },
        {
          "internalType": "uint256",
          "name": "spotId",
          "type": "uint256"
        }
      ],
      "name": "getBookingDetails",
      "outputs": [
        {
          "components": [
            {
              "internalType": "address",
              "name": "user",
              "type": "address"
            },
            {
              "internalType": "uint256",
              "name": "lotId",
              "type": "uint256"
            },
            {
              "internalType": "uint256",
              "name": "spotId",
              "type": "uint256"
            },
            {
              "internalType": "uint256",
              "name": "startTime",
              "type": "uint256"
            },
            {
              "internalType": "uint256",
              "name": "duration",
              "type": "uint256"
            },
            {
              "internalType": "uint256",
              "name": "amountPaid",
              "type": "uint256"
            },
            {
              "internalType": "uint256",
              "name": "reservationTime",
              "type": "uint256"
            },
            {
              "internalType": "uint256",
              "name": "reminderBefore",
              "type": "uint256"
            }
          ],
          "internalType": "struct ParkingSystem.Booking",
          "name": "",
          "type": "tuple"
        }
      ],
      "stateMutability": "view",
      "type": "function",
      "constant": true
    },
    {
      "inputs": [
        {
          "internalType": "uint256",
          "name": "newRate",
          "type": "uint256"
        }
      ],
      "name": "updateRate",
      "outputs": [],
      "stateMutability": "nonpayable",
      "type": "function"
    },
    {
      "inputs": [],
      "name": "withdraw",
      "outputs": [],
      "stateMutability": "nonpayable",
      "type": "function"
    }
  ],
  "bytecode": "0x6080604052662386f26fc100006001553480156200001c57600080fd5b50336000806101000a81548173ffffffffffffffffffffffffffffffffffffffff021916908373ffffffffffffffffffffffffffffffffffffffff1602179055506000600190505b60068111620001ae576002600081548092919062000082906200025f565b91905055506000600567ffffffffffffffff811115620000a757620000a6620002ac565b5b604051908082528060200260200182016040528015620000d65781602001602082028036833780820191505090505b50905060005b60058110156200012d57600181620000f59190620002db565b8282815181106200010b576200010a62000316565b5b602002602001018181525050808062000124906200025f565b915050620000dc565b506040518060600160405280600254815260200160058152602001828152506003600060025481526020019081526020016000206000820151816000015560208201518160010155604082015181600201908051906020019062000193929190620001b5565b50905050508080620001a5906200025f565b91505062000064565b5062000345565b828054828255906000526020600020908101928215620001f4579160200282015b82811115620001f3578251825591602001919060010190620001d6565b5b50905062000203919062000207565b5090565b5b808211156200022257600081600090555060010162000208565b5090565b7f4e487b7100000000000000000000000000000000000000000000000000000000600052601160045260246000fd5b6000819050919050565b60006200026c8262000255565b91507fffffffffffffffffffffffffffffffffffffffffffffffffffffffffffffffff8203620002a157620002a062000226565b5b600182019050919050565b7f4e487b7100000000000000000000000000000000000000000000000000000000600052604160045260246000fd5b6000620002e88262000255565b9150620002f58362000255565b925082820190508082111562000310576200030f62000226565b5b92915050565b7f4e487b7100000000000000000000000000000000000000000000000000000000600052603260045260246000fd5b611ead80620003556000396000f3fe6080604052600436106100dd5760003560e01c8063976bbf6e1161007f578063d9f4986911610059578063d9f49869146102d1578063df5d16de146102fc578063e3c7f6df1461033a578063f851a44014610379576100dd565b8063976bbf6e1461024f578063a25125bb14610278578063cdf0bf0014610294576100dd565b80634d583859116100bb5780634d583859146101815780634fb3d3b1146101be57806369ea1771146101fb5780637ae169e914610224576100dd565b806322e8b990146100e2578063312c73b3146101265780633ccfd60b1461016a575b600080fd5b3480156100ee57600080fd5b506101096004803603810190610104919061130e565b6103a4565b60405161011d98979695949392919061136c565b60405180910390f35b34801561013257600080fd5b5061014d600480360381019061014891906113ea565b610429565b60405161016198979695949392919061136c565b60405180910390f35b34801561017657600080fd5b5061017f61049e565b005b34801561018d57600080fd5b506101a860048036038101906101a3919061142a565b610595565b6040516101b59190611515565b60405180910390f35b3480156101ca57600080fd5b506101e560048036038101906101e09190611537565b610603565b6040516101f291906116c5565b60405180910390f35b34801561020757600080fd5b50610222600480360381019061021d919061142a565b61073e565b005b34801561023057600080fd5b506102396107d6565b60405161024691906116e7565b60405180910390f35b34801561025b57600080fd5b50610276600480360381019061027191906113ea565b6107dc565b005b610292600480360381019061028d9190611740565b610abc565b005b3480156102a057600080fd5b506102bb60048036038101906102b691906113ea565b611040565b6040516102c8919061186f565b60405180910390f35b3480156102dd57600080fd5b506102e661111c565b6040516102f391906116e7565b60405180910390f35b34801561030857600080fd5b50610323600480360381019061031e919061142a565b611122565b60405161033192919061188b565b60405180910390f35b34801561034657600080fd5b50610361600480360381019061035c919061142a565b611146565b604051610370939291906118b4565b60405180910390f35b34801561038557600080fd5b5061038e6111f6565b60405161039b91906118eb565b60405180910390f35b600560205281600052604060002081815481106103c057600080fd5b9060005260206000209060080201600091509150508060000160009054906101000a900473ffffffffffffffffffffffffffffffffffffffff16908060010154908060020154908060030154908060040154908060050154908060060154908060070154905088565b6004602052816000526040600020602052806000526040600020600091509150508060000160009054906101000a900473ffffffffffffffffffffffffffffffffffffffff16908060010154908060020154908060030154908060040154908060050154908060060154908060070154905088565b60008054906101000a900473ffffffffffffffffffffffffffffffffffffffff1673ffffffffffffffffffffffffffffffffffffffff163373ffffffffffffffffffffffffffffffffffffffff161461052c576040517f08c379a000000000000000000000000000000000000000000000000000000000815260040161052390611963565b60405180910390fd5b60008054906101000a900473ffffffffffffffffffffffffffffffffffffffff1673ffffffffffffffffffffffffffffffffffffffff166108fc479081150290604051600060405180830381858888f19350505050158015610592573d6000803e3d6000fd5b50565b6060600360008381526020019081526020016000206002018054806020026020016040519081016040528092919081815260200182805480156105f757602002820191906000526020600020905b8154815260200190600101908083116105e3575b50505050509050919050565b6060600560008373ffffffffffffffffffffffffffffffffffffffff1673ffffffffffffffffffffffffffffffffffffffff168152602001908152602001600020805480602002602001604051908101604052809291908181526020016000905b828210156107335783829060005260206000209060080201604051806101000160405290816000820160009054906101000a900473ffffffffffffffffffffffffffffffffffffffff1673ffffffffffffffffffffffffffffffffffffffff1673ffffffffffffffffffffffffffffffffffffffff16815260200160018201548152602001600282015481526020016003820154815260200160048201548152602001600582015481526020016006820154815260200160078201548152505081526020019060010190610664565b505050509050919050565b60008054906101000a900473ffffffffffffffffffffffffffffffffffffffff1673ffffffffffffffffffffffffffffffffffffffff163373ffffffffffffffffffffffffffffffffffffffff16146107cc576040517f08c379a00000000000000000000000000000000000000000000000000000000081526004016107c390611963565b60405180910390fd5b8060018190555050565b60025481565b6000600460008481526020019081526020016000206000838152602001908152602001600020604051806101000160405290816000820160009054906101000a900473ffffffffffffffffffffffffffffffffffffffff1673ffffffffffffffffffffffffffffffffffffffff1673ffffffffffffffffffffffffffffffffffffffff16815260200160018201548152602001600282015481526020016003820154815260200160048201548152602001600582015481526020016006820154815260200160078201548152505090503373ffffffffffffffffffffffffffffffffffffffff16816000015173ffffffffffffffffffffffffffffffffffffffff161480610935575060008054906101000a900473ffffffffffffffffffffffffffffffffffffffff1673ffffffffffffffffffffffffffffffffffffffff163373ffffffffffffffffffffffffffffffffffffffff16145b610974576040517f08c379a000000000000000000000000000000000000000000000000000000000815260040161096b906119cf565b60405180910390fd5b60008160600151036109bb576040517f08c379a00000000000000000000000000000000000000000000000000000000081526004016109b290611a3b565b60405180910390fd5b600460008481526020019081526020016000206000838152602001908152602001600020600080820160006101000a81549073ffffffffffffffffffffffffffffffffffffffff021916905560018201600090556002820160009055600382016000905560048201600090556005820160009055600682016000905560078201600090555050600360008481526020019081526020016000206002018290806001815401808255809150506001900390600052602060002001600090919091909150557fe8d17556f2abb652e0b5df684dc0eaf976820f7ff42f9af18cf029e8fedbb3448383604051610aaf92919061188b565b60405180910390a1505050565b60008411610aff576040517f08c379a0000000000000000000000000000000000000000000000000000000008152600401610af690611aa7565b60405180910390fd5b600086118015610b1157506002548611155b610b50576040517f08c379a0000000000000000000000000000000000000000000000000000000008152600401610b4790611b13565b60405180910390fd5b600060015485610b609190611b62565b905080341015610ba5576040517f08c379a0000000000000000000000000000000000000000000000000000000008152600401610b9c90611bf0565b60405180910390fd5b60006003600089815260200190815260200160002090506000805b8260020180549050811015610c945788836002018281548110610be657610be5611c10565b5b906000526020600020015403610c8157600191508260020160018460020180549050610c129190611c3f565b81548110610c2357610c22611c10565b5b9060005260206000200154836002018281548110610c4457610c43611c10565b5b906000526020600020018190555082600201805480610c6657610c65611c73565b5b60019003818190600052602060002001600090559055610c94565b8080610c8c90611ca2565b915050610bc0565b5080610cd5576040517f08c379a0000000000000000000000000000000000000000000000000000000008152600401610ccc90611d36565b60405180910390fd5b6040518061010001604052803373ffffffffffffffffffffffffffffffffffffffff1681526020018a8152602001898152602001428152602001610e1089610d1d9190611b62565b815260200134815260200186815260200185815250600460008b815260200190815260200160002060008a815260200190815260200160002060008201518160000160006101000a81548173ffffffffffffffffffffffffffffffffffffffff021916908373ffffffffffffffffffffffffffffffffffffffff1602179055506020820151816001015560408201518160020155606082015181600301556080820151816004015560a0820151816005015560c0820151816006015560e08201518160070155905050600560003373ffffffffffffffffffffffffffffffffffffffff1673ffffffffffffffffffffffffffffffffffffffff168152602001908152602001600020600460008b815260200190815260200160002060008a815260200190815260200160002090806001815401808255809150506001900390600052602060002090600802016000909190919091506000820160009054906101000a900473ffffffffffffffffffffffffffffffffffffffff168160000160006101000a81548173ffffffffffffffffffffffffffffffffffffffff021916908373ffffffffffffffffffffffffffffffffffffffff16021790555060018201548160010155600282015481600201556003820154816003015560048201548160040155600582015481600501556006820154816006015560078201548160070155505060008673ffffffffffffffffffffffffffffffffffffffff1634604051610f4790611d87565b60006040518083038185875af1925050503d8060008114610f84576040519150601f19603f3d011682016040523d82523d6000602084013e610f89565b606091505b5050905080610fcd576040517f08c379a0000000000000000000000000000000000000000000000000000000008152600401610fc490611de8565b60405180910390fd5b3373ffffffffffffffffffffffffffffffffffffffff167f8aa7b2388e1a4856c0ef85f8bb7270d33741969072d79848498e39c9b4182d3f8b8b42610e108d6110169190611b62565b348c8c60405161102c9796959493929190611e08565b60405180910390a250505050505050505050565b61104861121a565b600460008481526020019081526020016000206000838152602001908152602001600020604051806101000160405290816000820160009054906101000a900473ffffffffffffffffffffffffffffffffffffffff1673ffffffffffffffffffffffffffffffffffffffff1673ffffffffffffffffffffffffffffffffffffffff168152602001600182015481526020016002820154815260200160038201548152602001600482015481526020016005820154815260200160068201548152602001600782015481525050905092915050565b60015481565b60036020528060005260406000206000915090508060000154908060010154905082565b600080600080600360008681526020019081526020016000206040518060600160405290816000820154815260200160018201548152602001600282018054806020026020016040519081016040528092919081815260200182805480156111cd57602002820191906000526020600020905b8154815260200190600101908083116111b9575b505050505081525050905080600001518160200151826040015151935093509350509193909250565b60008054906101000a900473ffffffffffffffffffffffffffffffffffffffff1681565b604051806101000160405280600073ffffffffffffffffffffffffffffffffffffffff168152602001600081526020016000815260200160008152602001600081526020016000815260200160008152602001600081525090565b600080fd5b600073ffffffffffffffffffffffffffffffffffffffff82169050919050565b60006112a58261127a565b9050919050565b6112b58161129a565b81146112c057600080fd5b50565b6000813590506112d2816112ac565b92915050565b6000819050919050565b6112eb816112d8565b81146112f657600080fd5b50565b600081359050611308816112e2565b92915050565b6000806040838503121561132557611324611275565b5b6000611333858286016112c3565b9250506020611344858286016112f9565b9150509250929050565b6113578161129a565b82525050565b611366816112d8565b82525050565b600061010082019050611382600083018b61134e565b61138f602083018a61135d565b61139c604083018961135d565b6113a9606083018861135d565b6113b6608083018761135d565b6113c360a083018661135d565b6113d060c083018561135d565b6113dd60e083018461135d565b9998505050505050505050565b6000806040838503121561140157611400611275565b5b600061140f858286016112f9565b9250506020611420858286016112f9565b9150509250929050565b6000602082840312156114405761143f611275565b5b600061144e848285016112f9565b91505092915050565b600081519050919050565b600082825260208201905092915050565b6000819050602082019050919050565b61148c816112d8565b82525050565b600061149e8383611483565b60208301905092915050565b6000602082019050919050565b60006114c282611457565b6114cc8185611462565b93506114d783611473565b8060005b838110156115085781516114ef8882611492565b97506114fa836114aa565b9250506001810190506114db565b5085935050505092915050565b6000602082019050818103600083015261152f81846114b7565b905092915050565b60006020828403121561154d5761154c611275565b5b600061155b848285016112c3565b91505092915050565b600081519050919050565b600082825260208201905092915050565b6000819050602082019050919050565b6115998161129a565b82525050565b610100820160008201516115b66000850182611590565b5060208201516115c96020850182611483565b5060408201516115dc6040850182611483565b5060608201516115ef6060850182611483565b5060808201516116026080850182611483565b5060a082015161161560a0850182611483565b5060c082015161162860c0850182611483565b5060e082015161163b60e0850182611483565b50505050565b600061164d838361159f565b6101008301905092915050565b6000602082019050919050565b600061167282611564565b61167c818561156f565b935061168783611580565b8060005b838110156116b857815161169f8882611641565b97506116aa8361165a565b92505060018101905061168b565b5085935050505092915050565b600060208201905081810360008301526116df8184611667565b905092915050565b60006020820190506116fc600083018461135d565b92915050565b600061170d8261127a565b9050919050565b61171d81611702565b811461172857600080fd5b50565b60008135905061173a81611714565b92915050565b60008060008060008060c0878903121561175d5761175c611275565b5b600061176b89828a016112f9565b965050602061177c89828a016112f9565b955050604061178d89828a016112f9565b945050606061179e89828a0161172b565b93505060806117af89828a016112f9565b92505060a06117c089828a016112f9565b9150509295509295509295565b610100820160008201516117e46000850182611590565b5060208201516117f76020850182611483565b50604082015161180a6040850182611483565b50606082015161181d6060850182611483565b5060808201516118306080850182611483565b5060a082015161184360a0850182611483565b5060c082015161185660c0850182611483565b5060e082015161186960e0850182611483565b50505050565b60006101008201905061188560008301846117cd565b92915050565b60006040820190506118a0600083018561135d565b6118ad602083018461135d565b9392505050565b60006060820190506118c9600083018661135d565b6118d6602083018561135d565b6118e3604083018461135d565b949350505050565b6000602082019050611900600083018461134e565b92915050565b600082825260208201905092915050565b7f4f6e6c792061646d696e00000000000000000000000000000000000000000000600082015250565b600061194d600a83611906565b915061195882611917565b602082019050919050565b6000602082019050818103600083015261197c81611940565b9050919050565b7f556e617574686f72697a65640000000000000000000000000000000000000000600082015250565b60006119b9600c83611906565b91506119c482611983565b602082019050919050565b600060208201905081810360008301526119e8816119ac565b9050919050565b7f4e6f7420626f6f6b656400000000000000000000000000000000000000000000600082015250565b6000611a25600a83611906565b9150611a30826119ef565b602082019050919050565b60006020820190508181036000830152611a5481611a18565b9050919050565b7f4475726174696f6e206d757374206265203e2030000000000000000000000000600082015250565b6000611a91601483611906565b9150611a9c82611a5b565b602082019050919050565b60006020820190508181036000830152611ac081611a84565b9050919050565b7f496e76616c6964206c6f74000000000000000000000000000000000000000000600082015250565b6000611afd600b83611906565b9150611b0882611ac7565b602082019050919050565b60006020820190508181036000830152611b2c81611af0565b9050919050565b7f4e487b7100000000000000000000000000000000000000000000000000000000600052601160045260246000fd5b6000611b6d826112d8565b9150611b78836112d8565b9250828202611b86816112d8565b91508282048414831517611b9d57611b9c611b33565b5b5092915050565b7f496e73756666696369656e742045544800000000000000000000000000000000600082015250565b6000611bda601083611906565b9150611be582611ba4565b602082019050919050565b60006020820190508181036000830152611c0981611bcd565b9050919050565b7f4e487b7100000000000000000000000000000000000000000000000000000000600052603260045260246000fd5b6000611c4a826112d8565b9150611c55836112d8565b9250828203905081811115611c6d57611c6c611b33565b5b92915050565b7f4e487b7100000000000000000000000000000000000000000000000000000000600052603160045260246000fd5b6000611cad826112d8565b91507fffffffffffffffffffffffffffffffffffffffffffffffffffffffffffffffff8203611cdf57611cde611b33565b5b600182019050919050565b7f53706f74206e6f7420617661696c61626c6520696e2074686973206c6f740000600082015250565b6000611d20601e83611906565b9150611d2b82611cea565b602082019050919050565b60006020820190508181036000830152611d4f81611d13565b9050919050565b600081905092915050565b50565b6000611d71600083611d56565b9150611d7c82611d61565b600082019050919050565b6000611d9282611d64565b9150819050919050565b7f4661696c656420746f2073656e642045544820746f20726563697069656e7400600082015250565b6000611dd2601f83611906565b9150611ddd82611d9c565b602082019050919050565b60006020820190508181036000830152611e0181611dc5565b9050919050565b600060e082019050611e1d600083018a61135d565b611e2a602083018961135d565b611e37604083018861135d565b611e44606083018761135d565b611e51608083018661135d565b611e5e60a083018561135d565b611e6b60c083018461135d565b9897505050505050505056fea264697066735822122064ebdab2dd4ac9fcdf12e32c980913ad8bc860e4a6f4481b54a97642e1a6490c64736f6c63430008110033",
  "immutableReferences": {},
  "source": "// SPDX-License-Identifier: MIT\npragma solidity ^0.8.17;\n\ncontract ParkingSystem {\n    address public admin;\n    uint public ratePerHour = 0.01 ether;\n    uint public lotCount;\n\n    struct ParkingLot {\n        uint id;\n        uint totalSpots;\n        uint[] availableSpots;\n    }\n\n    struct Booking {\n        address user;\n        uint lotId;\n        uint spotId;\n        uint startTime;\n        uint duration;\n        uint amountPaid;\n        uint reservationTime;\n        uint reminderBefore;\n    }\n\n    mapping(uint => ParkingLot) public parkingLots;\n    mapping(uint => mapping(uint => Booking)) public bookings;\n    mapping(address => Booking[]) public userHistory;\n\n    event SpotBooked(\n        address indexed user,\n        uint lotId,\n        uint spotId,\n        uint startTime,\n        uint duration,\n        uint amountPaid,\n        uint reservationTime,\n        uint reminderBefore\n    );\n\n    event SpotReleased(uint lotId, uint spotId);\n\n    constructor() {\n        admin = msg.sender;\n\n        for (uint i = 1; i <= 6; i++) {\n            lotCount++;\n            uint[] memory spotIds = new uint[](5);\n            for (uint j = 0; j < 5; j++) {\n                spotIds[j] = j + 1;\n            }\n            parkingLots[lotCount] = ParkingLot(lotCount, 5, spotIds);\n        }\n    }\n\n    function getAvailableSpotsByLot(uint lotId) public view returns (uint[] memory) {\n        return parkingLots[lotId].availableSpots;\n    }\n\n    function getLotDetails(uint lotId) public view returns (uint lotID, uint total, uint available) {\n        ParkingLot memory lot = parkingLots[lotId];\n        return (lot.id, lot.totalSpots, lot.availableSpots.length);\n    }\n\n    function bookSpot(\n        uint lotId,\n        uint spotId,\n        uint durationHours,\n        address payable recipient,\n        uint reservationTime,\n        uint reminderBefore\n    ) external payable {\n        require(durationHours > 0, \"Duration must be > 0\");\n        require(lotId > 0 && lotId <= lotCount, \"Invalid lot\");\n\n        uint cost = durationHours * ratePerHour;\n        require(msg.value >= cost, \"Insufficient ETH\");\n\n        ParkingLot storage lot = parkingLots[lotId];\n        bool spotFound = false;\n\n        for (uint i = 0; i < lot.availableSpots.length; i++) {\n            if (lot.availableSpots[i] == spotId) {\n                spotFound = true;\n                lot.availableSpots[i] = lot.availableSpots[lot.availableSpots.length - 1];\n                lot.availableSpots.pop();\n                break;\n            }\n        }\n\n        require(spotFound, \"Spot not available in this lot\");\n\n        bookings[lotId][spotId] = Booking(\n            msg.sender,\n            lotId,\n            spotId,\n            block.timestamp,\n            durationHours * 1 hours,\n            msg.value,\n            reservationTime,\n            reminderBefore\n        );\n\n        userHistory[msg.sender].push(bookings[lotId][spotId]);\n\n        (bool sent, ) = recipient.call{value: msg.value}(\"\");\n        require(sent, \"Failed to send ETH to recipient\");\n\n        emit SpotBooked(\n            msg.sender,\n            lotId,\n            spotId,\n            block.timestamp,\n            durationHours * 1 hours,\n            msg.value,\n            reservationTime,\n            reminderBefore\n        );\n    }\n\n    function releaseSpot(uint lotId, uint spotId) external {\n        Booking memory b = bookings[lotId][spotId];\n        require(b.user == msg.sender || msg.sender == admin, \"Unauthorized\");\n        require(b.startTime != 0, \"Not booked\");\n\n        delete bookings[lotId][spotId];\n        parkingLots[lotId].availableSpots.push(spotId);\n\n        emit SpotReleased(lotId, spotId);\n    }\n\n    function getUserHistory(address user) external view returns (Booking[] memory) {\n        return userHistory[user];\n    }\n\n    function getBookingDetails(uint lotId, uint spotId) external view returns (Booking memory) {\n        return bookings[lotId][spotId];\n    }\n\n    function updateRate(uint newRate) external {\n        require(msg.sender == admin, \"Only admin\");\n        ratePerHour = newRate;\n    }\n\n    function withdraw() external {\n        require(msg.sender == admin, \"Only admin\");\n        payable(admin).transfer(address(this).balance);\n    }\n}\n",
  "sourcePath": "C:\\Users\\12509\\Desktop\\saspoly\\FinalCode_4\\FinalCode_4\\backend\\contracts\\ParkingSystem.sol",
  "compiler": {
    "name": "solc",
    "version": "0.8.17+commit.8df45f5f.Emscripten.clang"
  },
  "schemaVersion": "3.4.16",
  "updatedAt": "2025-04-23T19:44:33.239Z",
  "networkType": "ethereum",
  "devdoc": {
    "kind": "dev",
    "methods": {},
    "version": 1
  },
  "userdoc": {
    "kind": "user",
    "methods": {},
    "version": 1
  }
}